:10000000B8C00000D3C00000D1C00000CFC00000C5
:10001000CDC00000CBC00000C9C00000C7C00000B8
:10002000C5C00000C3C00000E8C50000BFC000009C
:10003000BDC00000BBC00000B9C00000B7C00000D8
:10004000B5C00000B3C00000B1C00000AFC00000E8
:10005000ADC00000ABC00000A9C00000A7C00000F8
:10006000A5C00000A3C00000A1C000009FC0000008
:100070009DC000009BC0000099C0000097C0000018
:1000800095C0000093C0000091C000008FC0000028
:100090008DC000008BC00000240350004F004B00B7
:1000A0004B0045004E00200043004F004E0054001E
:1000B00052004F004C004C004500520000001C0351
:1000C00048004F0052004900200043004F002E001E
:1000D0002C004C00540044002E00000004030904CE
:1000E0000902290001010080FA090400000203004E
:1000F00000000921110100012256000705020340FA
:100100000005070581034000051201000200000000
:10011000400D0F920000010102000105010905A137
:1001200001150025013500450175019510050919D6
:10013000012910810205012507463B01750495013F
:1001400065140939814265009501810126FF004649
:10015000FF0009300931093209357508950481021B
:100160000600FF0920950181020A212695089102C7
:10017000C00011241FBECFEFD0E2DEBFCDBF13E021
:10018000A0E0B1E0E8EAF0E100E00BBF02C00790B8
:100190000D92A636B107D9F713E0A6E6B3E001C089
:1001A0001D92AB38B107E1F799D27CC729CF6130F6
:1001B000710591F06330710579F06530710561F07A
:1001C0006730710549F06830710531F06A307105AA
:1001D00019F06C30710529F480E04F31510509F5B3
:1001E00019C06430710549F06630710531F069302D
:1001F000710519F06B30710529F480E04E3151051D
:1002000081F408C083709070892B31F480E04D3107
:10021000510539F481E0089580E04C31510509F42D
:1002200081E008950C9711F080E0089580E06F312F
:10023000710509F481E00895089508950895EF92F5
:10024000FF920F931F93CF93DF938C0138E0FC0153
:10025000832F11928A95E9F720E8F80123832483FC
:100260002583268332838091670390916803181653
:10027000190674F4D801E6E7F3E088E001900D92E6
:100280008150E1F780916703909168030197A9C1BC
:10029000809166038230F9F0833030F48823C9F00E
:1002A000813009F094C109C0843009F48DC18430D3
:1002B000A0F0853009F08BC198C1109270031092A4
:1002C0006F03F80111821082238324832583268300
:1002D000328382E07AC183E078C180916F0390918C
:1002E0007003FC01EE0FFF1FE80FF91FE85FFE4FE0
:1002F000E081E93009F47EC0EA30E8F4E43009F442
:100300004EC0E53058F4E13009F446C0E130E8F180
:10031000E230C1F1E33009F089C03AC0E63009F4B7
:100320004BC0E63008F442C0E73009F442C0E83080
:1003300009F07CC045C0EE3009F466C0EF3068F4C7
:10034000EB3009F44DC0EB3008F459C0EC3009F43F
:100350004CC0ED3009F06AC059C0E231A9F1E33177
:1003600030F4EF3051F0E03109F060C054C0E331B7
:1003700091F1E43109F05AC054C0F80180819181B3
:10038000906126C0F801168259C0F801158256C046
:100390008FEFF801868352C08FEFF80105C08FEF11
:1003A000F801848313821682858348C0F801148281
:1003B00045C0F801138242C08FEFF80184833EC02C
:1003C0008FEFF80183833AC0F801808191819260B8
:1003D0009183808333C0F801808191819160F8CF4F
:1003E000F801808191818460F3CFF801808191814F
:1003F0008260EECFF801808191818860E9CFF801B9
:10040000808191818160E4CFF80107C0F80180818B
:1004100091818061DDCFF8011482808191818062B9
:10042000D7CFF801808191818063D2CF80E8F80135
:10043000838384838583868388E08283E09071034D
:10044000F09072030894E11CF11CF0927203E092A8
:100450007103C0916F03D0917003FE01EE0FFF1F77
:10046000EC0FFD1FE85FFE4FE081E53189F46091FC
:1004700002017091030140910401509105018091A6
:1004800000019091010193DE882351F5629639C0F5
:10049000E63169F4609104017091050180910201D7
:1004A00090910301BFDE8823D9F42B962AC0E7314F
:1004B000B9F48091060190910701009789F0229785
:1004C000D0937003C0936F03109272031092710364
:1004D00010927503019790930701809306011BC04A
:1004E000FE01EE0FFF1FEC0FFD1FE85FFE4F818145
:1004F00092818E159F0520F080917503882359F015
:100500002196D0937003C0936F03109272031092E0
:1005100071031092750380916F03909170038A3C70
:1005200091050CF454C0E0900201F0900301C091D9
:100530000401D0910501C701BE0174DE20910001C4
:1005400030910101882369F02F5F3F4F3093010103
:100550002093000181E090E09093030180930201D9
:100560000FC0C901B701AE0122DE882371F00894E3
:10057000E11CF11CF0920301E092020181E090E0A5
:10058000909305018093040105C02196D093050145
:10059000C09304011092700310926F0310927203C3
:1005A000109271038EE090E0909307018093060112
:1005B00082E08093660380E8F801838384838583E7
:1005C000868388E0828303C085E080936603A6E784
:1005D000B3E0F80188E001900D928150E1F782E0EC
:1005E00090E09093680380936703DF91CF911F9110
:1005F0000F91FF90EF900895FF920F931F93DF9359
:10060000CF93CDB7DEB728970FB6F894DEBF0FBEF5
:10061000CDBF809182038430B9F582E08093E900F8
:100620008091E80082FF14C08091E80085FF0BC034
:100630008E010F5F1F4FC80167E070E040E050E09F
:10064000E0D08823C1F78091E8008B778093E800A1
:1006500081E08093E9008091E80080FF15C08E0161
:100660000F5F1F4FC801EBDDF02E012F8F2D902F54
:1006700068E070E040E050E074D08823B9F78091E2
:10068000E8008E778093E80028960FB6F894DEBFD6
:100690000FBECDBFCF91DF911F910F91FF900895B5
:1006A00082E060EC42E3C0D181E061EC42E3BCC196
:1006B00084B7877F84BF88E10FB6F8948093600089
:1006C000109260000FBE80E090E020E80FB6F89432
:1006D00020936100809361000FBE74C2E9DF7894BB
:1006E00017B88ADFC3D4FDCF933089F0943028F453
:1006F000913049F1923061F505C09132D1F09232DA
:1007000039F51CC089E290E0E0EEF0E025C08130D0
:1007100041F0813018F08230D9F406C0ECEDF0E001
:1007200005C0EEEBF0E002C0E8E9F0E0849190E073
:1007300013C089E090E0E2EFF0E00EC086E590E0C3
:10074000EBE1F1E009C082E190E0E9E0F1E004C012
:1007500080E090E0E0E0F0E0DA011196FC93EE93A7
:100760000895AF92BF92CF92DF92EF92FF921F93C4
:10077000CF93DF93EC017B016A01ACD1182F882362
:10078000A9F5C114D10439F0F60120813181E21AB2
:10079000F30AC20FD31FAA24BB2423C08091E80010
:1007A00085FD16C08091E8008E778093E8005ED4C6
:1007B000C114D10449F0F601808191818A0D9B1DFD
:1007C0009183808315E012C085D1882351F00DC03C
:1007D00089918093F1000894E108F1080894A11C24
:1007E000B11CE114F104D1F601C0182F812FDF9163
:1007F000CF911F91FF90EF90DF90CF90BF90AF907F
:100800000895AF92BF92CF92DF92EF92FF921F9323
:10081000CF93DF93EC017B016A015CD1182F882311
:10082000A9F5C114D10439F0F60120813181E21A11
:10083000F30AC20FD31FAA24BB2423C08091E8006F
:1008400085FD16C08091E8008B778093E8000ED478
:10085000C114D10449F0F601808191818A0D9B1D5C
:100860009183808315E012C035D1882351F00DC0EB
:100870008091F10089930894E108F1080894A11C83
:10088000B11CE114F104D1F601C0182F812FDF91C2
:10089000CF911F91FF90EF90DF90CF90BF90AF90DE
:1008A00008952091890330918A032617370720F491
:1008B000B901FC0120E038C061157105D1F7209124
:1008C000E8002E772093E800F4CF809182038823FC
:1008D00009F442C0853009F441C08091E80083FDED
:1008E00039C08091E80082FD2FC08091E80080FF30
:1008F0001BC08091F2009091F30006C021912093DB
:10090000F1006150704001966115710519F0803455
:100910009105A0F321E08034910509F020E0809159
:10092000E8008E778093E8006115710571F6222347
:1009300061F60AC080918203882371F0853071F0DE
:100940008091E80083FD0CC08091E80082FFF2CF27
:1009500080E0089581E0089582E0089583E008959D
:1009600081E008952091890330918A032617370783
:1009700020F4B901FC0120E039C061157105D1F7FF
:100980002091E8002E772093E800F4CF8091820335
:10099000882309F443C0853009F442C08091E800FF
:1009A00083FD3AC08091E80082FD30C08091E8006C
:1009B00080FF1CC08091F2009091F30007C0249149
:1009C0002093F100319661507040019661157105D8
:1009D00019F08034910598F321E08034910509F0F5
:1009E00020E08091E8008E778093E8006115710522
:1009F00069F6222359F60AC080918203882371F098
:100A0000853071F08091E80083FD0CC08091E80092
:100A100082FFF2CF80E0089581E0089582E008959A
:100A200083E0089581E00895982F2AC09093E9000B
:100A3000981739F07091EC002091ED005091F00082
:100A400003C0242F762F50E021FF19C03091EB0016
:100A50003E7F3093EB003091ED003D7F3093ED0011
:100A60003091EB0031603093EB007093EC002093F9
:100A7000ED005093F0002091EE0027FF08C09F5F2B
:100A80009730A0F28F708093E90081E0089580E0B4
:100A900008958091830387FF13C004C0809182036F
:100AA0008823B9F08091E80082FFF8CF8091E800B8
:100AB0008B778093E800089580918203882349F022
:100AC0008091E80080FFF8CF8091E8008E778093D6
:100AD000E80008958091E4009091E50045E601C0AA
:100AE000C9012091EC0020FF23C02091E80020FDE7
:100AF00015C020918203222399F0253099F020918E
:100B0000EB0025FD11C02091E4003091E50028178D
:100B1000390739F3415021F784E0089580E00895C2
:100B200082E0089583E0089581E0089580E00895CB
:100B30002091E80022FFDDCFF9CF0F931F93CF93D1
:100B4000DF934ED055D0C8EDD0E088818F77888371
:100B500088818068888388818F7D8883E7EDF0E0D5
:100B600080818068808319BC1092820310927E037A
:100B70001092800310927F0300EE10E0F801808154
:100B80008B7F808388818160888380E060E042E39E
:100B90004BDFE1EEF0E080818E7F8083E2EEF0E0DB
:100BA000808181608083808188608083F80180817A
:100BB0008E7F8083888180618883DF91CF911F91B0
:100BC0000F910895E8EDF0E080818F7E8083E7ED5E
:100BD000F0E080818160808381E080938103ADCFEC
:100BE000E8EDF0E080818C7F80831092E200089530
:100BF0001092DA001092E10008951F920F920FB642
:100C00000F920BB60F9211242F933F934F935F9344
:100C10006F937F938F939F93AF93BF93EF93FF93C4
:100C20008091E10082FF0AC08091E20082FF06C04D
:100C30008091E1008B7F8093E10017D28091DA00F0
:100C400080FF1DC08091D80080FF19C08091DA001C
:100C50008E7F8093DA008091D90080FF0CC084E100
:100C600089BD86E189BD09B400FEFDCF81E0809396
:100C70008203E2DA04C019BC10928203DEDA8091AA
:100C8000E10080FF18C08091E20080FF14C08091D5
:100C9000E2008E7F8093E2008091E2008061809389
:100CA000E2008091D80080628093D80019BC85E072
:100CB00080938203DAD18091E10084FF2FC080917C
:100CC000E20084FF2BC084E189BD86E189BD09B4BF
:100CD00000FEFDCF8091D8008F7D8093D800809159
:100CE000E1008F7E8093E1008091E2008F7E80930F
:100CF000E2008091E20081608093E20080917E03B7
:100D0000882311F084E007C08091E30087FF02C0D0
:100D100083E001C081E080938203A7D18091E1004C
:100D200083FF22C08091E20083FF1EC08091E1001A
:100D3000877F8093E10082E08093820310927E039C
:100D40008091E1008E7F8093E1008091E2008E7FB0
:100D50008093E2008091E20080618093E20080E075
:100D600060E042E361DE81D1FF91EF91BF91AF91ED
:100D70009F918F917F916F915F914F913F912F91B3
:100D80000F900BBE0F900FBE0F901F9018951F93E2
:100D9000CF93DF93CDB7DEB7AC970FB6F894DEBF35
:100DA0000FBECDBF80E0E3E8F3E09091F1009193B6
:100DB0008F5F8830D1F742DA8091E80083FF3DC130
:100DC0008091830320918403253009F48AC0263062
:100DD00040F42130B9F1213070F0233009F02DC1F9
:100DE00031C0283009F4FBC0293009F40AC126308B
:100DF00009F023C199C0803821F0823809F01DC163
:100E000008C080917F0390918003992389F08260CC
:100E10000FC0809187038F70873008F00EC18093D8
:100E2000E9009091EB0081E095FF80E01092E900ED
:100E30009091E800977F9093E8008093F1001092E2
:100E4000F100D8C0882319F0823009F0F6C090E094
:100E50008F719070009729F08230910509F0EDC0F4
:100E60000BC080918503813009F0E7C0233009F081
:100E700080E0809380032FC080918503882359F5FB
:100E8000209187032F70822F8150863008F0D5C0C3
:100E90002093E9008091EB0080FF1DC080918403C6
:100EA000833021F48091EB00806213C08091EB00CD
:100EB00080618093EB0081E090E002C0880F991F71
:100EC0002A95E2F78093EA001092EA008091EB0005
:100ED00088608093EB001092E9008091E800877FA2
:100EE0008CC0882309F0A9C0109185031F778091D9
:100EF000E3008078812B8093E3008091E800877F76
:100F00008093E800C6DD8091E80080FFFCCF8091EF
:100F1000E30080688093E300112311F083E001C0B7
:100F200082E08093820389C08058823008F085C0B7
:100F3000809185039091860323E08C3D9207A9F56B
:100F400083E08C838AE28B835FB7F894DE0113968B
:100F500080E090E04EE061E2E42FF0E06093570023
:100F6000E49180FF03C0E295EF704F5FEF702E2F8A
:100F700030E0EA3018F0295C3F4F02C0205D3F4F5F
:100F800013963C932E9312970196129684319105F5
:100F900019F75FBF8091E800877F8093E800CE015A
:100FA00003966AE270E07DDC14C060918703709163
:100FB0008803AE014F5F5F4F97DBBC01009709F4D8
:100FC0003CC08091E800877F8093E80089819A8106
:100FD000C9DC8091E8008B778093E8002EC08038D0
:100FE00061F58091E800877F8093E80080917E031F
:100FF0008093F1008091E8008E778093E80049DDCE
:101000001CC08823D1F4909185039230B0F4809174
:10101000E800877F8093E80090937E033ADD80911B
:101020007E03882321F48091E30087FF02C084E0DF
:1010300001C081E08093820333DB8091E80083FF6D
:101040000AC08091E800877F8093E8008091EB00E0
:1010500080628093EB00AC960FB6F894DEBF0FBEB3
:10106000CDBFDF91CF911F9108950895CF938091C7
:1010700082038823A9F08091E9008F709091EC00A1
:1010800090FF02C0C0E801C0C0E0C82B1092E90088
:101090008091E80083FF01C07ADECF70C093E90041
:0810A000CF910895F894FFCFF1
:1010A8000100010001000E000C05001105000905F2
:1010B800001114000B0500117800050400110A0046
:1010C800080300110A000B05001114000B0500119C
:1010D8005E01011300110A00051A01110A000B052F
:1010E80000110A000B0500110A000B05001164002D
:1010F8000B05001178000F050011320006050011DC
:101108000A00080500110A00080500110A00080570
:1011180000110A00080500110A000B050011320031
:101128000605001105000605001105000605001159
:101138000500060500110500060500110500060555
:10114800001105000605001105000605001105003F
:101158000605001105000605001105000605001129
:101168000500060500110500060500110500060525
:10117800001105000B0500110A00060500110A0000
:10118800060500110A00060500110A0006050011EF
:101198000A000B0500110A00060500110A000605E1
:1011A80000110A000B0500110A00080500110A00C9
:1011B800080500110A00050500110A0015010007BD
:1011C8000500110A00050500110A00080500110AAA
:1011D80000160100070500110A00070500110A00A2
:1011E800050500110A00080500110A00080500118C
:1011F8000A00110A00080500110A00080500110A72
:1012080000080500110A000B0500110A000F05006F
:101218001132000B05001132000C05001132000BD1
:10122800050011FA000905001114000B05001178DA
:10123800000E0100110A000E0100110A000B050042
:101248001114000B0500118A02050A00116400053B
:101258003C00110A00070D00110A000B0300110AD7
:10126800000B0300110F0006030011050006030020
:101278001105000B030011C8000B0300110F000B30
:10128800030011C2010C03001123001701000B0316
:1012980000110A000B0300110F00060300110500DE
:1012A8000603001105000B030011C8000B03001111
:1012B80014000B03001114000B030011460009036E
:1012C80000110F000C0300110F000B030011640044
:1012D8000B03001114000B03001114000B03001181
:1012E800C2010C0300110F000C0300110F000C03C6
:1012F80000111E000C0300110500080D00110A0062
:0613080006410011640023
:00000001FF
