:10000000B8C00000D3C00000D1C00000CFC00000C5
:10001000CDC00000CBC00000C9C00000C7C00000B8
:10002000C5C00000C3C00000C8C50000BFC00000BC
:10003000BDC00000BBC00000B9C00000B7C00000D8
:10004000B5C00000B3C00000B1C00000AFC00000E8
:10005000ADC00000ABC00000A9C00000A7C00000F8
:10006000A5C00000A3C00000A1C000009FC0000008
:100070009DC000009BC0000099C0000097C0000018
:1000800095C0000093C0000091C000008FC0000028
:100090008DC000008BC00000240350004F004B00B7
:1000A0004B0045004E00200043004F004E0054001E
:1000B00052004F004C004C004500520000001C0351
:1000C00048004F0052004900200043004F002E001E
:1000D0002C004C00540044002E00000004030904CE
:1000E0000902290001010080FA090400000203004E
:1000F00000000921110100012256000705020340FA
:100100000005070581034000051201000200000000
:10011000400D0F920000010102000105010905A137
:1001200001150025013500450175019510050919D6
:10013000012910810205012507463B01750495013F
:1001400065140939814265009501810126FF004649
:10015000FF0009300931093209357508950481021B
:100160000600FF0920950181020A212695089102C7
:10017000C00011241FBECFEFD0E2DEBFCDBF11E023
:10018000A0E0B1E0E8E6F0E100E00BBF02C00790BC
:100190000D92A83DB107D9F712E0A8EDB1E001C07A
:1001A0001D92A830B107E1F779D25CC729CF089535
:1001B00008950895CF93DF93DC0138E0FC01832F8D
:1001C00011928A95E9F720E813962C9313971496C9
:1001D0002C93149715962C93159716962C93169787
:1001E00012963C9312978091D9019091DA011816DA
:1001F00019066CF4E3EFF1E088E001900D92815074
:10020000E1F78091D9019091DA010197CEC18091F7
:10021000D801823049F1833030F4882319F18130DC
:1002200009F0B9C109C0843009F4B2C18430F0F0DA
:10023000853009F0B0C1BDC11092E2011092E10118
:1002400011961C921E9213962C93139714962C932E
:10025000149715962C93159716962C93169712961D
:100260003C93129782E095C183E093C18091E101B4
:100270009091E201FC01EE0FFF1FE80FF91FE05023
:10028000FF4FE081E93009F482C0EA30E8F4E4305D
:1002900009F449C0E53058F4E13009F442C0E130D6
:1002A000B8F1E23089F1E33009F090C035C0E630B2
:1002B00009F44FC0E63008F444C0E73009F445C003
:1002C000E83009F083C04AC0EE3009F472C0EF3064
:1002D00068F4EB3009F451C0EB3008F45DC0EC3049
:1002E00009F450C0ED3009F071C05BC0E131D9F1C3
:1002F000E23120F4EF3009F069C058C0E231C1F1B9
:10030000E33109F063C05AC016961C9216976FC06D
:1003100015961C9215976BC08FEF16968C931697B7
:1003200066C08FEF0AC08FEF14968C9314971396C4
:100330001C92139716961C92169715968C931597E8
:1003400056C014961C92149752C013961C92139781
:100350004EC08FEF14968C93149749C08FEF13966D
:100360008C93139744C08D919C91119792602AC0F1
:100370008D919C911197916025C08D919C911197C1
:10038000846020C08D919C91119782601BC08D91DB
:100390009C911197886016C08D919C9111978160F6
:1003A00011C08D919C91119780610CC014961C9284
:1003B00014978D919C911197806204C08D919C91AE
:1003C0001197806311969C938E9311C080E81396C9
:1003D0008C93139714968C93149715968C9315976A
:1003E00016968C93169788E012968C9312974091EC
:1003F000E3015091E4014F5F5F4F5093E40140935C
:10040000E3012091E1013091E201F901EE0FFF1FBC
:10041000E20FF31FE050FF4FE081E73139F48091A4
:10042000F0018823B9F52E5F3F4F46C0E631C1F495
:100430008091EC019091ED01009761F122503040E4
:100440003093E2012093E1011092E4011092E30164
:100450001092E70101979093ED018093EC0136C073
:10046000E531C1F48091EE019091EF01009791F098
:10047000225030403093E2012093E1011092E401D8
:100480001092E3011092E70101979093EF0180939E
:10049000EE011CC0F901EE0FFF1FE20FF31FE05049
:1004A000FF4F818192818417950720F08091E701A9
:1004B000882361F02F5F3F4F3093E2012093E101E9
:1004C0001092E4011092E3011092E7018091E101A2
:1004D0009091E201883491050CF45DC01092F00116
:1004E0008091EA019091EB0101969093EB0180934A
:1004F000EA01059701F51092EB011092EA01809153
:10050000E8019091E90101969093E9018093E80157
:100510008530910539F486E090E09093E90180936D
:10052000E80109C0079739F41092E9011092E80137
:1005300081E08093F0018091EA019091EB0190932A
:10054000EF018093EE018091E8019091E901909391
:10055000ED018093EC011092E2011092E101109202
:10056000E4011092E30182E08093D80180E81396C1
:100570008C93139714968C93149715968C931597C8
:1005800016968C93169788E012968C93129703C058
:1005900085E08093D801C3EFD1E0FD0188E00190B0
:1005A00009928150E1F782E090E09093DA01809324
:1005B000D901DF91CF910895FF920F931F93DF939D
:1005C000CF93CDB7DEB728970FB6F894DEBF0FBE36
:1005D000CDBF8091FF018430B9F582E08093E900BE
:1005E0008091E80082FF14C08091E80085FF0BC075
:1005F0008E010F5F1F4FC80167E070E040E050E0E0
:10060000E0D08823C1F78091E8008B778093E800E1
:1006100081E08093E9008091E80080FF15C08E01A1
:100620000F5F1F4FC801C6DDF02E012F8F2D902FB9
:1006300068E070E040E050E074D08823B9F7809122
:10064000E8008E778093E80028960FB6F894DEBF16
:100650000FBECDBFCF91DF911F910F91FF900895F5
:1006600082E060EC42E3C0D181E061EC42E3BCC1D6
:1006700084B7877F84BF88E10FB6F89480936000C9
:10068000109260000FBE80E090E020E80FB6F89472
:1006900020936100809361000FBE74C2E9DF7894FB
:1006A00017B88ADFC3D4FDCF933089F0943028F493
:1006B000913049F1923061F505C09132D1F092321A
:1006C00039F51CC089E290E0E0EEF0E025C0813011
:1006D00041F0813018F08230D9F406C0ECEDF0E042
:1006E00005C0EEEBF0E002C0E8E9F0E0849190E0B4
:1006F00013C089E090E0E2EFF0E00EC086E590E004
:10070000EBE1F1E009C082E190E0E9E0F1E004C052
:1007100080E090E0E0E0F0E0DA011196FC93EE93E7
:100720000895AF92BF92CF92DF92EF92FF921F9304
:10073000CF93DF93EC017B016A01ACD1182F8823A2
:10074000A9F5C114D10439F0F60120813181E21AF2
:10075000F30AC20FD31FAA24BB2423C08091E80050
:1007600085FD16C08091E8008E778093E8005ED406
:10077000C114D10449F0F601808191818A0D9B1D3D
:100780009183808315E012C085D1882351F00DC07C
:1007900089918093F1000894E108F1080894A11C64
:1007A000B11CE114F104D1F601C0182F812FDF91A3
:1007B000CF911F91FF90EF90DF90CF90BF90AF90BF
:1007C0000895AF92BF92CF92DF92EF92FF921F9364
:1007D000CF93DF93EC017B016A015CD1182F882352
:1007E000A9F5C114D10439F0F60120813181E21A52
:1007F000F30AC20FD31FAA24BB2423C08091E800B0
:1008000085FD16C08091E8008B778093E8000ED4B8
:10081000C114D10449F0F601808191818A0D9B1D9C
:100820009183808315E012C035D1882351F00DC02B
:100830008091F10089930894E108F1080894A11CC3
:10084000B11CE114F104D1F601C0182F812FDF9102
:10085000CF911F91FF90EF90DF90CF90BF90AF901E
:10086000089520910602309107022617370720F4D9
:10087000B901FC0120E038C061157105D1F7209164
:10088000E8002E772093E800F4CF8091FF018823C1
:1008900009F442C0853009F441C08091E80083FD2D
:1008A00039C08091E80082FD2FC08091E80080FF70
:1008B0001BC08091F2009091F30006C0219120931B
:1008C000F1006150704001966115710519F0803496
:1008D0009105A0F321E08034910509F020E080919A
:1008E000E8008E778093E8006115710571F6222388
:1008F00061F60AC08091FF01882371F0853071F0A4
:100900008091E80083FD0CC08091E80082FFF2CF67
:1009100080E0089581E0089582E0089583E00895DD
:1009200081E00895209106023091070226173707CB
:1009300020F4B901FC0120E039C061157105D1F73F
:100940002091E8002E772093E800F4CF8091FF01FA
:10095000882309F443C0853009F442C08091E8003F
:1009600083FD3AC08091E80082FD30C08091E800AC
:1009700080FF1CC08091F2009091F30007C0249189
:100980002093F10031966150704001966115710518
:1009900019F08034910598F321E08034910509F035
:1009A00020E08091E8008E778093E8006115710562
:1009B00069F6222359F60AC08091FF01882371F05D
:1009C000853071F08091E80083FD0CC08091E800D3
:1009D00082FFF2CF80E0089581E0089582E00895DB
:1009E00083E0089581E00895982F2AC09093E9004C
:1009F000981739F07091EC002091ED005091F000C3
:100A000003C0242F762F50E021FF19C03091EB0056
:100A10003E7F3093EB003091ED003D7F3093ED0051
:100A20003091EB0031603093EB007093EC00209339
:100A3000ED005093F0002091EE0027FF08C09F5F6B
:100A40009730A0F28F708093E90081E0089580E0F4
:100A500008958091000287FF13C004C08091FF01B8
:100A60008823B9F08091E80082FFF8CF8091E800F8
:100A70008B778093E80008958091FF01882349F0E7
:100A80008091E80080FFF8CF8091E8008E77809316
:100A9000E80008958091E4009091E50045E601C0EA
:100AA000C9012091EC0020FF23C02091E80020FD27
:100AB00015C02091FF01222399F0253099F0209153
:100AC000EB0025FD11C02091E4003091E5002817CE
:100AD000390739F3415021F784E0089580E0089503
:100AE00082E0089583E0089581E0089580E008950C
:100AF0002091E80022FFDDCFF9CF0F931F93CF9312
:100B0000DF934ED055D0C8EDD0E088818F778883B1
:100B100088818068888388818F7D8883E7EDF0E015
:100B200080818068808319BC1092FF011092FB01C4
:100B30001092FD011092FC0100EE10E0F80180819E
:100B40008B7F808388818160888380E060E042E3DE
:100B50004BDFE1EEF0E080818E7F8083E2EEF0E01B
:100B6000808181608083808188608083F8018081BA
:100B70008E7F8083888180618883DF91CF911F91F0
:100B80000F910895E8EDF0E080818F7E8083E7ED9E
:100B9000F0E080818160808381E08093FE01ADCFB1
:100BA000E8EDF0E080818C7F80831092E200089570
:100BB0001092DA001092E10008951F920F920FB682
:100BC0000F920BB60F9211242F933F934F935F9385
:100BD0006F937F938F939F93AF93BF93EF93FF9305
:100BE0008091E10082FF0AC08091E20082FF06C08E
:100BF0008091E1008B7F8093E10017D28091DA0031
:100C000080FF1DC08091D80080FF19C08091DA005C
:100C10008E7F8093DA008091D90080FF0CC084E140
:100C200089BD86E189BD09B400FEFDCF81E08093D6
:100C3000FF01BDDA04C019BC1092FF01B9DA80913E
:100C4000E10080FF18C08091E20080FF14C0809115
:100C5000E2008E7F8093E2008091E20080618093C9
:100C6000E2008091D80080628093D80019BC85E0B2
:100C70008093FF01DAD18091E10084FF2FC0809141
:100C8000E20084FF2BC084E189BD86E189BD09B4FF
:100C900000FEFDCF8091D8008F7D8093D800809199
:100CA000E1008F7E8093E1008091E2008F7E80934F
:100CB000E2008091E20081608093E2008091FB017C
:100CC000882311F084E007C08091E30087FF02C011
:100CD00083E001C081E08093FF01A7D18091E10012
:100CE00083FF22C08091E20083FF1EC08091E1005B
:100CF000877F8093E10082E08093FF011092FB01E7
:100D00008091E1008E7F8093E1008091E2008E7FF0
:100D10008093E2008091E20080618093E20080E0B5
:100D200060E042E361DE81D1FF91EF91BF91AF912D
:100D30009F918F917F916F915F914F913F912F91F3
:100D40000F900BBE0F900FBE0F901F9018951F9322
:100D5000CF93DF93CDB7DEB7AC970FB6F894DEBF75
:100D60000FBECDBF80E0E0E0F2E09091F100919302
:100D70008F5F8830D1F71DDA8091E80083FF3DC195
:100D80008091000220910102253009F48AC02630AA
:100D900040F42130B9F1213070F0233009F02DC139
:100DA00031C0283009F4FBC0293009F40AC12630CB
:100DB00009F023C199C0803821F0823809F01DC1A3
:100DC00008C08091FC019091FD01992389F0826017
:100DD0000FC0809104028F70873008F00EC180939D
:100DE000E9009091EB0081E095FF80E01092E9002E
:100DF0009091E800977F9093E8008093F100109223
:100E0000F100D8C0882319F0823009F0F6C090E0D4
:100E10008F719070009729F08230910509F0EDC034
:100E20000BC080910202813009F0E7C0233009F045
:100E300080E08093FD012FC080910202882359F544
:100E4000209104022F70822F8150863008F0D5C087
:100E50002093E9008091EB0080FF1DC0809101028A
:100E6000833021F48091EB00806213C08091EB000D
:100E700080618093EB0081E090E002C0880F991FB1
:100E80002A95E2F78093EA001092EA008091EB0045
:100E900088608093EB001092E9008091E800877FE2
:100EA0008CC0882309F0A9C0109102021F7780919D
:100EB000E3008078812B8093E3008091E800877FB6
:100EC0008093E800C6DD8091E80080FFFCCF809130
:100ED000E30080688093E300112311F083E001C0F8
:100EE00082E08093FF0189C08058823008F085C07D
:100EF000809102029091030223E08C3D9207A9F5B4
:100F000083E08C838AE28B835FB7F894DE011396CB
:100F100080E090E04EE061E2E42FF0E06093570063
:100F2000E49180FF03C0E295EF704F5FEF702E2FCA
:100F300030E0EA3018F0295C3F4F02C0205D3F4F9F
:100F400013963C932E931297019612968431910535
:100F500019F75FBF8091E800877F8093E800CE019A
:100F600003966AE270E07DDC14C060910402709127
:100F70000502AE014F5F5F4F97DBBC01009709F49C
:100F80003CC08091E800877F8093E80089819A8146
:100F9000C9DC8091E8008B778093E8002EC0803810
:100FA00061F58091E800877F8093E8008091FB01E4
:100FB0008093F1008091E8008E778093E80049DD0E
:100FC0001CC08823D1F4909102029230B0F4809139
:100FD000E800877F8093E8009093FB013ADD8091E1
:100FE000FB01882321F48091E30087FF02C084E0A5
:100FF00001C081E08093FF0133DB8091E80083FF33
:101000000AC08091E800877F8093E8008091EB0020
:1010100080628093EB00AC960FB6F894DEBF0FBEF3
:10102000CDBFDF91CF911F9108950895CF93809107
:10103000FF018823A9F08091E9008F709091EC0066
:1010400090FF02C0C0E801C0C0E0C82B1092E900C8
:101050008091E80083FF01C07ADECF70C093E90081
:08106000CF910895F894FFCF31
:10106800003700100A00056400048C230B050010EB
:10107800BC020C0500102C010C0500106400090AC4
:1010880000101400080100100A00050100100A00F1
:101098000B05001064000E05001064000701001025
:1010A8000A00060100100A000B0500100A000B05D3
:1010B80000101400080500100A00050500100A00B9
:1010C800050500170100080500100A0006050010B4
:1010D8000A00150100080500100A00160100100A90
:1010E800000B0500100A000C05001064000C050038
:1010F800106400070100100A00060100100A000B26
:1011080005001064000B05001014000B05001064A6
:1011180000015A00100A000528000B0500101400F1
:101128000B050010FA000C05001064000C050010F7
:0811380064000C050010140016
:00000001FF
