:10000000B8C00000D3C00000D1C00000CFC00000C5
:10001000CDC00000CBC00000C9C00000C7C00000B8
:10002000C5C00000C3C0000017C60000BFC000006C
:10003000BDC00000BBC00000B9C00000B7C00000D8
:10004000B5C00000B3C00000B1C00000AFC00000E8
:10005000ADC00000ABC00000A9C00000A7C00000F8
:10006000A5C00000A3C00000A1C000009FC0000008
:100070009DC000009BC0000099C0000097C0000018
:1000800095C0000093C0000091C000008FC0000028
:100090008DC000008BC00000240350004F004B00B7
:1000A0004B0045004E00200043004F004E0054001E
:1000B00052004F004C004C004500520000001C0351
:1000C00048004F0052004900200043004F002E001E
:1000D0002C004C00540044002E00000004030904CE
:1000E0000902290001010080FA090400000203004E
:1000F00000000921110100012256000705020340FA
:100100000005070581034000051201000200000000
:10011000400D0F920000010102000105010905A137
:1001200001150025013500450175019510050919D6
:10013000012910810205012507463B01750495013F
:1001400065140939814265009501810126FF004649
:10015000FF0009300931093209357508950481021B
:100160000600FF0920950181020A212695089102C7
:10017000C00011241FBECFEFD0E2DEBFCDBF11E023
:10018000A0E0B1E0E6E0F1E100E00BBF02C00790C3
:100190000D92A830B107D9F711E0A8E0B1E001C095
:1001A0001D92A433B107E1F7C3D2ABC729CF08959D
:1001B00008950895CF93DF93DC0138E0FC01832F8D
:1001C00011928A95E9F720E813962C9313971496C9
:1001D0002C93149715962C93159716962C93169787
:1001E00012963C9312978091090190910A0118167A
:1001F00019066CF4EFE1F1E088E001900D92815076
:10020000E1F78091090190910A01019718C280914C
:100210000801823049F1833030F4882319F18130AC
:1002200009F003C209C0843009F4FCC18430F0F045
:10023000853009F0FAC107C2109212011092110123
:1002400011961C921E9213962C93139714962C932E
:10025000149715962C93159716962C93169712961D
:100260003C93129782E0DFC183E0DDC180911101F0
:1002700090911201FC01EE0FFF1FE80FF91FEE5FD6
:10028000FE4FE081E83009F483C0E930B0F4E33098
:1002900009F440C0E43030F4E13009F440C0E23009
:1002A00088F534C0E53009F444C0E530D0F1E630DB
:1002B000E1F1E73009F080C04FC0ED3009F472C0C1
:1002C000EE3068F4EA3009F459C0EA3008F465C049
:1002D000EB3009F458C0EC3009F06EC068C0E03172
:1002E00069F1E13120F4EE3009F066C006C0E13179
:1002F000C1F1E23109F060C03CC08D919C91119731
:10030000906133C016961C92169767C015961C9282
:10031000159763C08FEF16968C9316975EC08FEF7C
:1003200017C014961C92149758C013961C921397DA
:1003300054C08FEF14968C9314974FC08FEF149680
:100340008C93149713961C92139716961C921697DB
:1003500015968C93159741C08FEF13968C93139736
:100360003CC08D919C911197926011969C938E93B5
:1003700034C08D919C9111979160F7CF8D919C9194
:1003800011978460F2CF8D919C9111978260EDCF8F
:100390008D919C9111978860E8CF8D919C911197D8
:1003A0008160E3CF8D919C9111978062DECF8D911A
:1003B0009C9111978061D9CF80E813968C93139705
:1003C00014968C93149715968C93159716968C9378
:1003D000169788E012968C931297409113015091D2
:1003E00014014F5F5F4F509314014093130120910C
:1003F000110130911201F901EE0FFF1FE20FF31FFF
:10040000EE5FFE4F80818A3111F510921401109237
:10041000130180911701909118018431910559F4CD
:100420002F5F3F4F3093120120931101109218015A
:1004300010921701D4C02250304030931201209303
:10044000110101969093180180931701C8C08B3158
:1004500011F51092140110921301809119019091DD
:100460001A018832910559F42F5F3F4F30931201E2
:100470002093110110921A0110921901B0C022505C
:1004800030403093120120931101019690931A018C
:1004900080931901A4C0873129F41092140110929D
:1004A000130129C0883169F42F5F3F4F3093120147
:1004B00020931101109214011092130180E48BB962
:1004C0008EC0893119F42A5F3F4F81C0833149F4CE
:1004D00080E18BB91092140110921301339B0EC06E
:1004E0000AC0843171F480E88BB910921401109223
:1004F0001301379B03C02F5F3F4F3CC02250304059
:100500005AC08531E9F510921401109213014091FF
:100510001D0150911E014031510534F580E18BB928
:10052000339B15C02A5030403093120120931101A3
:100530001BB88091000190910101019790930101F6
:100540008093000110921E0110921D0148C022509C
:10055000304030931201209311014F5F5F4F509351
:100560001E0140931D013BC010921E0110921D01FF
:100570002A50304030931201209311011BB82FC034
:100580008631F1F410921401109213018091000150
:1005900090910101019769F42C5F3F4F3093120154
:1005A0002093110185E090E0909301018093000178
:1005B00016C02F5F3F4F30931201209311010FC0DF
:1005C000818192818417950750F42F5F3F4F3093BC
:1005D00012012093110110921401109213018091C5
:1005E000110190911201029704F1109212011092E0
:1005F0001101109214011092130182E080930801FE
:1006000080E813968C93139714968C9314971596F1
:100610008C93159716968C93169788E012968C9368
:10062000129703C085E080930801CFE1D1E0FD017E
:1006300088E0019009928150E1F782E090E0909388
:100640000A0180930901DF91CF910895FF920F93E2
:100650001F93DF93CF93CDB7DEB728970FB6F894EB
:10066000DEBF0FBECDBF80912B018430B9F582E093
:100670008093E9008091E80082FF14C08091E80037
:1006800085FF0BC08E010F5F1F4FC80167E070E050
:1006900040E050E0E5D08823C1F78091E8008B77F7
:1006A0008093E80081E08093E9008091E80080FF7A
:1006B00015C08E010F5F1F4FC8017CDDF02E012F8A
:1006C0008F2D902F68E070E040E050E079D08823D3
:1006D000B9F78091E8008E778093E80028960FB6EE
:1006E000F894DEBF0FBECDBFCF91DF911F910F9168
:1006F000FF90089582E060EC42E3C5D181E061ECB7
:1007000042E3C1C184B7877F84BF88E10FB6F89404
:1007100080936000109260000FBE80E090E020E8BF
:100720000FB6F89420936100809361000FBE79C2E8
:100730008FEF8AB91BB817B884B915B8E3DF78947E
:1007400085DFC3D4FDCF933089F0943028F4913005
:1007500049F1923061F505C09132D1F0923239F50C
:100760001CC089E290E0E0EEF0E025C0813041F06D
:10077000813018F08230D9F406C0ECEDF0E005C00D
:10078000EEEBF0E002C0E8E9F0E0849190E013C005
:1007900089E090E0E2EFF0E00EC086E590E0EBE16A
:1007A000F1E009C082E190E0E9E0F1E004C080E01E
:1007B00090E0E0E0F0E0DA011196FC93EE9308950A
:1007C000AF92BF92CF92DF92EF92FF921F93CF939F
:1007D000DF93EC017B016A01ACD1182F8823A9F5C6
:1007E000C114D10439F0F60120813181E21AF30AF3
:1007F000C20FD31FAA24BB2423C08091E80085FD2B
:1008000016C08091E8008E778093E8005ED4C11412
:10081000D10449F0F601808191818A0D9B1D91835D
:10082000808315E012C085D1882351F00DC08991D5
:100830008093F1000894E108F1080894A11CB11C10
:10084000E114F104D1F601C0182F812FDF91CF916F
:100850001F91FF90EF90DF90CF90BF90AF900895E1
:10086000AF92BF92CF92DF92EF92FF921F93CF93FE
:10087000DF93EC017B016A015CD1182F8823A9F575
:10088000C114D10439F0F60120813181E21AF30A52
:10089000C20FD31FAA24BB2423C08091E80085FD8A
:1008A00016C08091E8008B778093E8000ED4C114C5
:1008B000D10449F0F601808191818A0D9B1D9183BD
:1008C000808315E012C035D1882351F00DC080918E
:1008D000F10089930894E108F1080894A11CB11C67
:1008E000E114F104D1F601C0182F812FDF91CF91CF
:1008F0001F91FF90EF90DF90CF90BF90AF90089541
:1009000020913201309133012617370720F4B901C5
:10091000FC0120E038C061157105D1F72091E80095
:100920002E772093E800F4CF80912B01882309F4DF
:1009300042C0853009F441C08091E80083FD39C090
:100940008091E80082FD2FC08091E80080FF1BC0ED
:100950008091F2009091F30006C021912093F10064
:100960006150704001966115710519F08034910550
:10097000A0F321E08034910509F020E08091E800A7
:100980008E778093E8006115710571F6222361F678
:100990000AC080912B01882371F0853071F080911D
:1009A000E80083FD0CC08091E80082FFF2CF80E078
:1009B000089581E0089582E0089583E0089581E03C
:1009C000089520913201309133012617370720F422
:1009D000B901FC0120E039C061157105D1F7209102
:1009E000E8002E772093E800F4CF80912B01882334
:1009F00009F443C0853009F442C08091E80083FDCA
:100A00003AC08091E80082FD30C08091E80080FF0C
:100A10001CC08091F2009091F30007C024912093B4
:100A2000F10031966150704001966115710519F021
:100A30008034910598F321E08034910509F020E09D
:100A40008091E8008E778093E8006115710569F662
:100A5000222359F60AC080912B01882371F085303A
:100A600071F08091E80083FD0CC08091E80082FF66
:100A7000F2CF80E0089581E0089582E0089583E058
:100A8000089581E00895982F2AC09093E90098175F
:100A900039F07091EC002091ED005091F00003C00E
:100AA000242F762F50E021FF19C03091EB003E7FBC
:100AB0003093EB003091ED003D7F3093ED003091AD
:100AC000EB0031603093EB007093EC002093ED006D
:100AD0005093F0002091EE0027FF08C09F5F9730F1
:100AE000A0F28F708093E90081E0089580E008957E
:100AF00080912C0187FF13C004C080912B018823B3
:100B0000B9F08091E80082FFF8CF8091E8008B7700
:100B10008093E800089580912B01882349F080910B
:100B2000E80080FFF8CF8091E8008E778093E8009E
:100B300008958091E4009091E50045E601C0C90167
:100B40002091EC0020FF23C02091E80020FD15C07B
:100B500020912B01222399F0253099F02091EB0070
:100B600025FD11C02091E4003091E50028173907D8
:100B700039F3415021F784E0089580E0089582E040
:100B8000089583E0089581E0089580E0089520911C
:100B9000E80022FFDDCFF9CF0F931F93CF93DF93B0
:100BA0004ED055D0C8EDD0E088818F77888388817A
:100BB0008068888388818F7D8883E7EDF0E080817D
:100BC0008068808319BC10922B011092270110922B
:100BD00029011092280100EE10E0F80180818B7F3E
:100BE000808388818160888380E060E042E34BDF1E
:100BF000E1EEF0E080818E7F8083E2EEF0E08081A4
:100C000081608083808188608083F80180818E7F0D
:100C10008083888180618883DF91CF911F910F91BC
:100C20000895E8EDF0E080818F7E8083E7EDF0E0CD
:100C300080818160808381E080932A01ADCFE8EDDF
:100C4000F0E080818C7F80831092E2000895109202
:100C5000DA001092E10008951F920F920FB60F92E2
:100C60000BB60F9211242F933F934F935F936F9383
:100C70007F938F939F93AF93BF93EF93FF93809155
:100C8000E10082FF0AC08091E20082FF06C08091ED
:100C9000E1008B7F8093E10017D28091DA0080FF22
:100CA0001DC08091D80080FF19C08091DA008E7F2E
:100CB0008093DA008091D90080FF0CC084E189BD67
:100CC00086E189BD09B400FEFDCF81E080932B0150
:100CD0006EDA04C019BC10922B016ADA8091E1002F
:100CE00080FF18C08091E20080FF14C08091E20074
:100CF0008E7F8093E2008091E20080618093E20029
:100D00008091D80080628093D80019BC85E08093E0
:100D10002B01DAD18091E10084FF2FC08091E200A5
:100D200084FF2BC084E189BD86E189BD09B400FE42
:100D3000FDCF8091D8008F7D8093D8008091E10015
:100D40008F7E8093E1008091E2008F7E8093E200AD
:100D50008091E20081608093E200809127018823E6
:100D600011F084E007C08091E30087FF02C083E0B8
:100D700001C081E080932B01A7D18091E10083FF26
:100D800022C08091E20083FF1EC08091E100877F36
:100D90008093E10082E080932B01109227018091E3
:100DA000E1008E7F8093E1008091E2008E7F80934E
:100DB000E2008091E20080618093E20080E060E0E8
:100DC00042E361DE81D1FF91EF91BF91AF919F919D
:100DD0008F917F916F915F914F913F912F910F90E4
:100DE0000BBE0F900FBE0F901F9018951F93CF93BF
:100DF000DF93CDB7DEB7AC970FB6F894DEBF0FBE6A
:100E0000CDBF80E0ECE2F1E09091F10091938F5F33
:100E10008830D1F7CED98091E80083FF3DC1809121
:100E20002C0120912D01253009F48AC0263040F490
:100E30002130B9F1213070F0233009F02DC131C0DB
:100E4000283009F4FBC0293009F40AC1263009F022
:100E500023C199C0803821F0823809F01DC108C033
:100E60008091280190912901992389F082600FC017
:100E7000809130018F70873008F00EC18093E900B7
:100E80009091EB0081E095FF80E01092E900909155
:100E9000E800977F9093E8008093F1001092F100B2
:100EA000D8C0882319F0823009F0F6C090E08F7125
:100EB0009070009729F08230910509F0EDC00BC0C9
:100EC00080912E01813009F0E7C0233009F080E0E5
:100ED000809329012FC080912E01882359F52091FC
:100EE00030012F70822F8150863008F0D5C02093BA
:100EF000E9008091EB0080FF1DC080912D018330BF
:100F000021F48091EB00806213C08091EB0080613E
:100F10008093EB0081E090E002C0880F991F2A9532
:100F2000E2F78093EA001092EA008091EB0088607B
:100F30008093EB001092E9008091E800877F8CC0DD
:100F4000882309F0A9C010912E011F778091E3003A
:100F50008078812B8093E3008091E800877F8093E5
:100F6000E800C6DD8091E80080FFFCCF8091E300BF
:100F700080688093E300112311F083E001C082E0D8
:100F800080932B0189C08058823008F085C0809101
:100F90002E0190912F0123E08C3D9207A9F583E06B
:100FA0008C838AE28B835FB7F894DE01139680E02E
:100FB00090E04EE061E2E42FF0E060935700E491AE
:100FC00080FF03C0E295EF704F5FEF702E2F30E08F
:100FD000EA3018F0295C3F4F02C0205D3F4F139666
:100FE0003C932E931297019612968431910519F72E
:100FF0005FBF8091E800877F8093E800CE01039671
:101000006AE270E07DDC14C06091300170913101C2
:10101000AE014F5F5F4F97DBBC01009709F43CC006
:101020008091E800877F8093E80089819A81C9DCFC
:101030008091E8008B778093E8002EC0803861F5BE
:101040008091E800877F8093E8008091270180935A
:10105000F1008091E8008E778093E80049DD1CC0A4
:101060008823D1F490912E019230B0F48091E80061
:10107000877F8093E800909327013ADD80912701D4
:10108000882321F48091E30087FF02C084E001C03F
:1010900081E080932B012EDB8091E80083FF0AC062
:1010A0008091E800877F8093E8008091EB00806268
:1010B0008093EB00AC960FB6F894DEBF0FBECDBFA9
:1010C000DF91CF911F9108950895CF9380912B01C7
:1010D0008823A9F08091E9008F709091EC0090FF37
:1010E00002C0C0E801C0C0E0C82B1092E9008091A6
:1010F000E80083FF01C07ADECF70C093E900CF9192
:061100000895F894FFCFF2
:0811060005000A05000F1400AA
:00000001FF
