:10000000B8C00000D3C00000D1C00000CFC00000C5
:10001000CDC00000CBC00000C9C00000C7C00000B8
:10002000C5C00000C3C00000B2C50000BFC00000D2
:10003000BDC00000BBC00000B9C00000B7C00000D8
:10004000B5C00000B3C00000B1C00000AFC00000E8
:10005000ADC00000ABC00000A9C00000A7C00000F8
:10006000A5C00000A3C00000A1C000009FC0000008
:100070009DC000009BC0000099C0000097C0000018
:1000800095C0000093C0000091C000008FC0000028
:100090008DC000008BC00000240350004F004B00B7
:1000A0004B0045004E00200043004F004E0054001E
:1000B00052004F004C004C004500520000001C0351
:1000C00048004F0052004900200043004F002E001E
:1000D0002C004C00540044002E00000004030904CE
:1000E0000902290001010080FA090400000203004E
:1000F00000000921110100012256000705020340FA
:100100000005070581034000051201000200000000
:10011000400D0F920000010102000105010905A137
:1001200001150025013500450175019510050919D6
:10013000012910810205012507463B01750495013F
:1001400065140939814265009501810126FF004649
:10015000FF0009300931093209357508950481021B
:100160000600FF0920950181020A212695089102C7
:10017000C00011241FBECFEFD0E2DEBFCDBF12E022
:10018000A0E0B1E0ECE3F0E100E00BBF02C00790BB
:100190000D92A435B107D9F712E0A4E5B2E001C091
:1001A0001D92A937B107E1F763D246C729CF613065
:1001B000710591F06330710579F06530710561F07A
:1001C0006730710549F06830710531F06A307105AA
:1001D00019F06C30710529F480E04F31510509F5B3
:1001E00019C06430710549F06630710531F069302D
:1001F000710519F06B30710529F480E04E3151051D
:1002000081F408C083709070892B31F480E04D3107
:10021000510539F481E0089580E04C31510509F42D
:1002200081E008950C9711F080E0089580E06F312F
:10023000710509F481E00895089508950895EF92F5
:10024000FF920F931F93CF93DF93EC0138E0FC01F3
:10025000832F11928A95E9F720E82B832C832D8335
:100260002E833A83809155029091560218161906F2
:1002700074F4DE01E4E6F2E088E001900D92815032
:10028000E1F78091550290915602019774C18091D7
:1002900054028230F1F0833030F48823C1F0813091
:1002A00009F05FC109C0843009F458C1843098F066
:1002B000853009F056C163C110925E0210925D0252
:1002C000198218822B832C832D832E833A8382E01C
:1002D00046C183E044C180915D0290915E02FC01C1
:1002E000EE0FFF1FE80FF91FEA5FFE4FE081E930D4
:1002F00009F46EC0EA30D8F4E43009F447C0E530C0
:1003000058F4E13009F440C0E130C8F1E230A9F11D
:10031000E33009F072C035C0E63009F441C0E63080
:10032000D8F1E730D9F1E83009F067C03CC0EE30D1
:1003300009F45BC0EF3068F4EB3009F441C0EB30F6
:1003400008F44AC0EC3009F43FC0ED3009F055C064
:1003500047C0E23159F1E33130F4EF3051F0E03190
:1003600009F04BC041C0E33139F1E43109F045C037
:1003700040C08881998190611CC01E8245C01D8249
:1003800043C08FEF8E8340C08FEF04C08FEF8C830C
:100390001B821E828D8338C01C8236C01B8234C0F3
:1003A0008FEF8C8331C08FEF8B832EC08881998132
:1003B00092609983888328C0888199819160F9CF60
:1003C000888199818460F5CF888199818260F1CF9D
:1003D000888199818860EDCF888199818160E9CF9A
:1003E000888199818061E5CF1C82888199818062B2
:1003F000E0CF888199818063DCCF80E88B838C8318
:100400008D838E8388E08A83E0905F02F0906002A3
:100410000894E11CF11CF0926002E0925F020091EE
:100420005D0210915E02F801EE0FFF1FE00FF11F59
:10043000EA5FFE4FE081E53191F460910201709135
:1004400003014091040150910501809100019091B8
:100450000101ADDE882399F40E5E1F4F22C0E63104
:1004600071F46091040170910501809102019091F5
:100470000301D8DE882319F4055F1F4F12C0F8016D
:10048000EE0FFF1FE00FF11FEA5FFE4F81819281A7
:100490008E159F0520F080916302882361F00F5F25
:1004A0001F4F10935E0200935D0210926002109243
:1004B0005F021092630280915D0290915E028F361E
:1004C00091050CF44EC0E0900201F0900301009100
:1004D000040110910501C701B801A4DE20910001BB
:1004E00030910101882369F02F5F3F4F3093010164
:1004F0002093000181E090E090930301809302013A
:100500000FC0C901B701A80152DE882371F0089419
:10051000E11CF11CF0920301E092020181E090E005
:10052000909305018093040106C00F5F1F4F109345
:1005300005010093040110925E0210925D02109278
:10054000600210925F0282E08093540280E88B8305
:100550008C838D838E8388E08A8303C085E08093BB
:100560005402A4E6B2E0FE0188E001900D928150B1
:10057000E1F782E090E09093560280935502DF917C
:10058000CF911F910F91FF90EF900895FF920F93DD
:100590001F93DF93CF93CDB7DEB728970FB6F894AC
:1005A000DEBF0FBECDBF809170028430B9F582E00E
:1005B0008093E9008091E80082FF14C08091E800F8
:1005C00085FF0BC08E010F5F1F4FC80167E070E011
:1005D00040E050E0E0D08823C1F78091E8008B77BD
:1005E0008093E80081E08093E9008091E80080FF3B
:1005F00015C08E010F5F1F4FC80121DEF02E012FA5
:100600008F2D902F68E070E040E050E074D0882398
:10061000B9F78091E8008E778093E80028960FB6AE
:10062000F894DEBF0FBECDBFCF91DF911F910F9128
:10063000FF90089582E060EC42E3C0D181E061EC7C
:1006400042E3BCC184B7877F84BF88E10FB6F894CA
:1006500080936000109260000FBE80E090E020E880
:100660000FB6F89420936100809361000FBE74C2AE
:10067000E9DF789417B88ADFC3D4FDCF933089F0CF
:10068000943028F4913049F1923061F505C09132EF
:10069000D1F0923239F51CC089E290E0E0EEF0E052
:1006A00025C0813041F0813018F08230D9F406C085
:1006B000ECEDF0E005C0EEEBF0E002C0E8E9F0E0C0
:1006C000849190E013C089E090E0E2EFF0E00EC08A
:1006D00086E590E0EBE1F1E009C082E190E0E9E03D
:1006E000F1E004C080E090E0E0E0F0E0DA01119693
:1006F000FC93EE930895AF92BF92CF92DF92EF9268
:10070000FF921F93CF93DF93EC017B016A01ACD181
:10071000182F8823A9F5C114D10439F0F6012081DE
:100720003181E21AF30AC20FD31FAA24BB2423C0CB
:100730008091E80085FD16C08091E8008E77809357
:10074000E8005ED4C114D10449F0F60180819181A2
:100750008A0D9B1D9183808315E012C085D188236B
:1007600051F00DC089918093F1000894E108F108DF
:100770000894A11CB11CE114F104D1F601C0182F9A
:10078000812FDF91CF911F91FF90EF90DF90CF905D
:10079000BF90AF900895AF92BF92CF92DF92EF9249
:1007A000FF921F93CF93DF93EC017B016A015CD131
:1007B000182F8823A9F5C114D10439F0F60120813E
:1007C0003181E21AF30AC20FD31FAA24BB2423C02B
:1007D0008091E80085FD16C08091E8008B778093BA
:1007E000E8000ED4C114D10449F0F6018081918152
:1007F0008A0D9B1D9183808315E012C035D188231B
:1008000051F00DC08091F10089930894E108F1083E
:100810000894A11CB11CE114F104D1F601C0182FF9
:10082000812FDF91CF911F91FF90EF90DF90CF90BC
:10083000BF90AF90089520917702309178022617EB
:10084000370720F4B901FC0120E038C061157105BB
:10085000D1F72091E8002E772093E800F4CF809123
:100860007002882309F442C0853009F441C08091A8
:10087000E80083FD39C08091E80082FD2FC080919F
:10088000E80080FF1BC08091F2009091F30006C049
:1008900021912093F100615070400196611571051E
:1008A00019F080349105A0F321E08034910509F01E
:1008B00020E08091E8008E778093E8006115710553
:1008C00071F6222361F60AC080917002882371F0CC
:1008D000853071F08091E80083FD0CC08091E800C4
:1008E00082FFF2CF80E0089581E0089582E00895CC
:1008F00083E0089581E00895209177023091780295
:100900002617370720F4B901FC0120E039C0611532
:100910007105D1F72091E8002E772093E800F4CFFD
:1009200080917002882309F443C0853009F442C0E5
:100930008091E80083FD3AC08091E80082FD30C0DC
:100940008091E80080FF1CC08091F2009091F3003C
:1009500007C024912093F1003196615070400196B8
:100960006115710519F08034910598F321E0803408
:10097000910509F020E08091E8008E778093E800EF
:100980006115710569F6222359F60AC0809170023B
:10099000882371F0853071F08091E80083FD0CC0F0
:1009A0008091E80082FFF2CF80E0089581E0089511
:1009B00082E0089583E0089581E00895982F2AC089
:1009C0009093E900981739F07091EC002091ED00B8
:1009D0005091F00003C0242F762F50E021FF19C062
:1009E0003091EB003E7F3093EB003091ED003D7F86
:1009F0003093ED003091EB0031603093EB00709359
:100A0000EC002093ED005093F0002091EE0027FFC2
:100A100008C09F5F9730A0F28F708093E90081E05B
:100A2000089580E008958091710287FF13C004C08B
:100A3000809170028823B9F08091E80082FFF8CF9E
:100A40008091E8008B778093E80008958091700290
:100A5000882349F08091E80080FFF8CF8091E8007A
:100A60008E778093E80008958091E4009091E500EE
:100A700045E601C0C9012091EC0020FF23C0209170
:100A8000E80020FD15C020917002222399F0253046
:100A900099F02091EB0025FD11C02091E4003091E8
:100AA000E5002817390739F3415021F784E008950C
:100AB00080E0089582E0089583E0089581E008953C
:100AC00080E008952091E80022FFDDCFF9CF0F9359
:100AD0001F93CF93DF934ED055D0C8EDD0E08881DF
:100AE0008F77888388818068888388818F7D8883D9
:100AF000E7EDF0E080818068808319BC109270027D
:100B000010926C0210926E0210926D0200EE10E0D4
:100B1000F80180818B7F808388818160888380E079
:100B200060E042E34BDFE1EEF0E080818E7F808386
:100B3000E2EEF0E080818160808380818860808344
:100B4000F80180818E7F8083888180618883DF9136
:100B5000CF911F910F910895E8EDF0E080818F7E95
:100B60008083E7EDF0E080818160808381E0809385
:100B70006F02ADCFE8EDF0E080818C7F8083109232
:100B8000E20008951092DA001092E10008951F9299
:100B90000F920FB60F920BB60F9211242F933F9323
:100BA0004F935F936F937F938F939F93AF93BF9375
:100BB000EF93FF938091E10082FF0AC08091E200F1
:100BC00082FF06C08091E1008B7F8093E10017D205
:100BD0008091DA0080FF1DC08091D80080FF19C08D
:100BE0008091DA008E7F8093DA008091D90080FFB7
:100BF0000CC084E189BD86E189BD09B400FEFDCF4A
:100C000081E08093700218DB04C019BC109270025E
:100C100014DB8091E10080FF18C08091E20080FF2A
:100C200014C08091E2008E7F8093E2008091E20008
:100C300080618093E2008091D80080628093D80028
:100C400019BC85E080937002DAD18091E10084FFC5
:100C50002FC08091E20084FF2BC084E189BD86E132
:100C600089BD09B400FEFDCF8091D8008F7D8093AF
:100C7000D8008091E1008F7E8093E1008091E200B6
:100C80008F7E8093E2008091E20081608093E20099
:100C900080916C02882311F084E007C08091E3000A
:100CA00087FF02C083E001C081E080937002A7D17A
:100CB0008091E10083FF22C08091E20083FF1EC08B
:100CC0008091E100877F8093E10082E08093700251
:100CD00010926C028091E1008E7F8093E100809100
:100CE000E2008E7F8093E2008091E2008061809339
:100CF000E20080E060E042E361DE81D1FF91EF91AC
:100D0000BF91AF919F918F917F916F915F914F9123
:100D10003F912F910F900BBE0F900FBE0F901F9021
:100D200018951F93CF93DF93CDB7DEB7AC970FB66F
:100D3000F894DEBF0FBECDBF80E0E1E7F2E0909116
:100D4000F10091938F5F8830D1F778DA8091E800D5
:100D500083FF3DC18091710220917202253009F418
:100D60008AC0263040F42130B9F1213070F02330B0
:100D700009F02DC131C0283009F4FBC0293009F435
:100D80000AC1263009F023C199C0803821F0823889
:100D900009F01DC108C080916D0290916E029923E7
:100DA00089F082600FC0809175028F70873008F0E3
:100DB0000EC18093E9009091EB0081E095FF80E007
:100DC0001092E9009091E800977F9093E80080935B
:100DD000F1001092F100D8C0882319F0823009F098
:100DE000F6C090E08F719070009729F082309105E5
:100DF00009F0EDC00BC080917302813009F0E7C0AB
:100E0000233009F080E080936E022FC0809173023E
:100E1000882359F5209175022F70822F81508630DA
:100E200008F0D5C02093E9008091EB0080FF1DC041
:100E300080917202833021F48091EB00806213C0B4
:100E40008091EB0080618093EB0081E090E002C034
:100E5000880F991F2A95E2F78093EA001092EA0022
:100E60008091EB0088608093EB001092E900809104
:100E7000E800877F8CC0882309F0A9C01091730215
:100E80001F778091E3008078812B8093E30080912D
:100E9000E800877F8093E800C6DD8091E80080FF4E
:100EA000FCCF8091E30080688093E300112311F070
:100EB00083E001C082E08093700289C08058823054
:100EC00008F085C0809173029091740223E08C3DFC
:100ED0009207A9F583E08C838AE28B835FB7F8944D
:100EE000DE01139680E090E04EE061E2E42FF0E056
:100EF00060935700E49180FF03C0E295EF704F5F6D
:100F0000EF702E2F30E0EA3018F0295C3F4F02C01E
:100F1000205D3F4F13963C932E93129701961296A5
:100F20008431910519F75FBF8091E800877F809336
:100F3000E800CE0103966AE270E07DDC14C06091A7
:100F4000750270917602AE014F5F5F4F97DBBC0177
:100F5000009709F43CC08091E800877F8093E80007
:100F600089819A81C9DC8091E8008B778093E800C1
:100F70002EC0803861F58091E800877F8093E8007B
:100F800080916C028093F1008091E8008E778093CD
:100F9000E80049DD1CC08823D1F49091730292309F
:100FA000B0F48091E800877F8093E80090936C0212
:100FB0003ADD80916C02882321F48091E30087FF61
:100FC00002C084E001C081E08093700233DB809135
:100FD000E80083FF0AC08091E800877F8093E800E3
:100FE0008091EB0080628093EB00AC960FB6F89492
:100FF000DEBF0FBECDBFDF91CF911F910895089541
:10100000CF93809170028823A9F08091E9008F70BE
:101010009091EC0090FF02C0C0E801C0C0E0C82B76
:101020001092E9008091E80083FF01C07ADECF7062
:0C103000C093E900CF910895F894FFCF21
:10103C000100010001000C0500110A000B05001154
:10104C000A000B0500110A000B05001164000B05CA
:10105C00001164000F0500113200060500110A0092
:10106C00080500110A00080500110A000805001106
:10107C000A00080500110A000B05001132000605D4
:10108C0000110500060500110500060500110500FC
:10109C0006050011050006050011050006050011E6
:1010AC0005000605001105000605001105000605E2
:1010BC0000110500060500110500060500110500CC
:1010CC0006050011050006050011050006050011B6
:1010DC0005000B0500110A00060500110A000605A3
:1010EC0000110A00060500110A00060500110A008D
:1010FC000B0500110A00060500110A000605001177
:10110C000A000B0500110A00080500110A00080569
:10111C0000110A00050500110A0015010007050061
:10112C00110A00050500110A00080500110A001635
:10113C000100070500110A00070500110A0005054A
:10114C0000110A00080500110A00080500110A0028
:10115C00110A00080500110A00080500110A000810
:10116C000500110A000B0500110A000F05001132D1
:10117C00000B05001132000C05001132000B0500AC
:04118C0011FA000054
:00000001FF
